{
  "contractName": "ToykoCratesPrefunding",
  "abi": [
    {
      "inputs": [
        {
          "internalType": "uint256",
          "name": "_presaleTokens",
          "type": "uint256"
        },
        {
          "internalType": "uint256",
          "name": "_presalePrice",
          "type": "uint256"
        },
        {
          "internalType": "uint256",
          "name": "_presaleEnd",
          "type": "uint256"
        }
      ],
      "stateMutability": "nonpayable",
      "type": "constructor"
    },
    {
      "anonymous": false,
      "inputs": [
        {
          "indexed": false,
          "internalType": "address",
          "name": "account",
          "type": "address"
        }
      ],
      "name": "Paused",
      "type": "event"
    },
    {
      "anonymous": false,
      "inputs": [
        {
          "indexed": false,
          "internalType": "address",
          "name": "account",
          "type": "address"
        }
      ],
      "name": "Unpaused",
      "type": "event"
    },
    {
      "inputs": [
        {
          "internalType": "address",
          "name": "",
          "type": "address"
        }
      ],
      "name": "Balances",
      "outputs": [
        {
          "internalType": "uint256",
          "name": "",
          "type": "uint256"
        }
      ],
      "stateMutability": "view",
      "type": "function"
    },
    {
      "inputs": [],
      "name": "owner",
      "outputs": [
        {
          "internalType": "address payable",
          "name": "",
          "type": "address"
        }
      ],
      "stateMutability": "view",
      "type": "function"
    },
    {
      "inputs": [],
      "name": "paused",
      "outputs": [
        {
          "internalType": "bool",
          "name": "",
          "type": "bool"
        }
      ],
      "stateMutability": "view",
      "type": "function"
    },
    {
      "inputs": [],
      "name": "presaleEnd",
      "outputs": [
        {
          "internalType": "uint256",
          "name": "",
          "type": "uint256"
        }
      ],
      "stateMutability": "view",
      "type": "function"
    },
    {
      "inputs": [],
      "name": "presalePrice",
      "outputs": [
        {
          "internalType": "uint256",
          "name": "",
          "type": "uint256"
        }
      ],
      "stateMutability": "view",
      "type": "function"
    },
    {
      "inputs": [],
      "name": "presaleTokens",
      "outputs": [
        {
          "internalType": "uint256",
          "name": "",
          "type": "uint256"
        }
      ],
      "stateMutability": "view",
      "type": "function"
    },
    {
      "inputs": [
        {
          "internalType": "uint256",
          "name": "_amount",
          "type": "uint256"
        }
      ],
      "name": "purchasePresaleToken",
      "outputs": [],
      "stateMutability": "payable",
      "type": "function"
    },
    {
      "inputs": [],
      "name": "clearBalance",
      "outputs": [],
      "stateMutability": "payable",
      "type": "function"
    },
    {
      "inputs": [
        {
          "internalType": "address",
          "name": "_redemptionAddress",
          "type": "address"
        }
      ],
      "name": "setRedemptionContract",
      "outputs": [],
      "stateMutability": "payable",
      "type": "function"
    }
  ],
  "bytecode": "0x608060405234801561001057600080fd5b50604051610c35380380610c35833981810160405281019061003291906100bf565b60008060006101000a81548160ff02191690831515021790555033600060016101000a81548173ffffffffffffffffffffffffffffffffffffffff021916908373ffffffffffffffffffffffffffffffffffffffff16021790555082600181905550816003819055508060028190555050505061012f565b6000815190506100b981610118565b92915050565b6000806000606084860312156100d457600080fd5b60006100e2868287016100aa565b93505060206100f3868287016100aa565b9250506040610104868287016100aa565b9150509250925092565b6000819050919050565b6101218161010e565b811461012c57600080fd5b50565b610af78061013e6000396000f3fe6080604052600436106100855760003560e01c80635c975abb116100595780635c975abb146101275780638da5cb5b14610152578063a8ec4c421461017d578063caf5f67d146101ba578063d028139c146101c457610085565b80620e7fa81461008a5780630a09815c146100b5578063189b3a1d146100e0578063229f3e29146100fc575b600080fd5b34801561009657600080fd5b5061009f6101e0565b6040516100ac919061080a565b60405180910390f35b3480156100c157600080fd5b506100ca6101e6565b6040516100d7919061080a565b60405180910390f35b6100fa60048036038101906100f59190610672565b6101ec565b005b34801561010857600080fd5b506101116103f6565b60405161011e919061080a565b60405180910390f35b34801561013357600080fd5b5061013c6103fc565b604051610149919061076f565b60405180910390f35b34801561015e57600080fd5b50610167610412565b6040516101749190610754565b60405180910390f35b34801561018957600080fd5b506101a4600480360381019061019f9190610649565b610438565b6040516101b1919061080a565b60405180910390f35b6101c2610450565b005b6101de60048036038101906101d99190610649565b61054b565b005b60035481565b60015481565b6101f46103fc565b15610234576040517f08c379a000000000000000000000000000000000000000000000000000000000815260040161022b906107aa565b60405180910390fd5b3460035482610243919061088c565b14610283576040517f08c379a000000000000000000000000000000000000000000000000000000000815260040161027a9061078a565b60405180910390fd5b600560008060019054906101000a900473ffffffffffffffffffffffffffffffffffffffff1673ffffffffffffffffffffffffffffffffffffffff1673ffffffffffffffffffffffffffffffffffffffff16815260200190815260200160002054811115610326576040517f08c379a000000000000000000000000000000000000000000000000000000000815260040161031d906107ea565b60405180910390fd5b80600560008060019054906101000a900473ffffffffffffffffffffffffffffffffffffffff1673ffffffffffffffffffffffffffffffffffffffff1673ffffffffffffffffffffffffffffffffffffffff168152602001908152602001600020600082825461039691906108e6565b9250508190555080600560003373ffffffffffffffffffffffffffffffffffffffff1673ffffffffffffffffffffffffffffffffffffffff16815260200190815260200160002060008282546103ec9190610836565b9250508190555050565b60025481565b60008060009054906101000a900460ff16905090565b600060019054906101000a900473ffffffffffffffffffffffffffffffffffffffff1681565b60056020528060005260406000206000915090505481565b600060019054906101000a900473ffffffffffffffffffffffffffffffffffffffff1673ffffffffffffffffffffffffffffffffffffffff163373ffffffffffffffffffffffffffffffffffffffff16146104e0576040517f08c379a00000000000000000000000000000000000000000000000000000000081526004016104d7906107ca565b60405180910390fd5b600060019054906101000a900473ffffffffffffffffffffffffffffffffffffffff1673ffffffffffffffffffffffffffffffffffffffff166108fc479081150290604051600060405180830381858888f19350505050158015610548573d6000803e3d6000fd5b50565b600060019054906101000a900473ffffffffffffffffffffffffffffffffffffffff1673ffffffffffffffffffffffffffffffffffffffff163373ffffffffffffffffffffffffffffffffffffffff16146105db576040517f08c379a00000000000000000000000000000000000000000000000000000000081526004016105d2906107ca565b60405180910390fd5b80600460006101000a81548173ffffffffffffffffffffffffffffffffffffffff021916908373ffffffffffffffffffffffffffffffffffffffff16021790555050565b60008135905061062e81610a93565b92915050565b60008135905061064381610aaa565b92915050565b60006020828403121561065b57600080fd5b60006106698482850161061f565b91505092915050565b60006020828403121561068457600080fd5b600061069284828501610634565b91505092915050565b6106a48161092c565b82525050565b6106b38161093e565b82525050565b60006106c6601583610825565b91506106d1826109a3565b602082019050919050565b60006106e9601083610825565b91506106f4826109cc565b602082019050919050565b600061070c603583610825565b9150610717826109f5565b604082019050919050565b600061072f602e83610825565b915061073a82610a44565b604082019050919050565b61074e8161096a565b82525050565b6000602082019050610769600083018461069b565b92915050565b600060208201905061078460008301846106aa565b92915050565b600060208201905081810360008301526107a3816106b9565b9050919050565b600060208201905081810360008301526107c3816106dc565b9050919050565b600060208201905081810360008301526107e3816106ff565b9050919050565b6000602082019050818103600083015261080381610722565b9050919050565b600060208201905061081f6000830184610745565b92915050565b600082825260208201905092915050565b60006108418261096a565b915061084c8361096a565b9250827fffffffffffffffffffffffffffffffffffffffffffffffffffffffffffffffff0382111561088157610880610974565b5b828201905092915050565b60006108978261096a565b91506108a28361096a565b9250817fffffffffffffffffffffffffffffffffffffffffffffffffffffffffffffffff04831182151516156108db576108da610974565b5b828202905092915050565b60006108f18261096a565b91506108fc8361096a565b92508282101561090f5761090e610974565b5b828203905092915050565b60006109258261094a565b9050919050565b60006109378261094a565b9050919050565b60008115159050919050565b600073ffffffffffffffffffffffffffffffffffffffff82169050919050565b6000819050919050565b7f4e487b7100000000000000000000000000000000000000000000000000000000600052601160045260246000fd5b7f496e636f727265637420616d6f756e742073656e740000000000000000000000600082015250565b7f5061757361626c653a2070617573656400000000000000000000000000000000600082015250565b7f4f6e6c7920746865206f776e6572206f662074686520636f6e7472616374206360008201527f616e2063616c6c20746869732066756e6374696f6e0000000000000000000000602082015250565b7f5468652072657175657374656420616d6f756e7420697320677265617465722060008201527f7468656e20617661696c61626c65000000000000000000000000000000000000602082015250565b610a9c8161091a565b8114610aa757600080fd5b50565b610ab38161096a565b8114610abe57600080fd5b5056fea2646970667358221220622003865397bb6744332a639dc7c30d09bde5d42b3b12a49fbcb2108bb476c364736f6c63430008020033",
  "immutableReferences": {},
  "source": "// SPDX-License-Identifier: MIT\npragma solidity ^0.8.2;\nimport \"openzeppelin-solidity/contracts/security/Pausable.sol\";\n\n\ncontract ToykoCratesPrefunding is Pausable {\n  address payable public owner;\n  uint256 public presaleTokens;\n  uint256 public presaleEnd;\n  uint256 public presalePrice;\n  address redemptionAddress;\n\n  mapping(address => uint256) public Balances;\n\n\n  /**\n    @dev Sets the values for {owner}, {presaleTokens}, {presalePrice}, {presaleEnd}\n   */\n  constructor(uint256 _presaleTokens, uint256 _presalePrice, uint256 _presaleEnd){\n    owner = payable(msg.sender);\n    presaleTokens = _presaleTokens;\n    presalePrice = _presalePrice;\n    presaleEnd = _presaleEnd;\n  }\n\n  /**\n    @notice Purchase a presale crate\n    @param _amount represents the amount of presale crates you are purchasing\n   */\n    function purchasePresaleToken(uint256 _amount) public payable whenNotPaused {\n        require(_amount * presalePrice == msg.value, \"Incorrect amount sent\");\n        require(\n            _amount <= Balances[owner],\n            \"The requested amount is greater then available\"\n        );\n        Balances[owner] -= _amount;\n        Balances[msg.sender] += _amount;\n    }\n\n\n\n    /**\n        @notice Clears balance of the contract and transfers it to the owner\n        @dev Only the owner of the smart contract can sign this transaction\n     */\n    function clearBalance() public payable {\n        require(\n            msg.sender == owner,\n            \"Only the owner of the contract can call this function\"\n        );\n        owner.transfer(address(this).balance);\n    }\n\n\n      /**\n        @dev Only the owner can sign this function\n        @notice Sets the address of the contract that can redeem the tokens\n        @param _redemptionAddress is the address of the contract that can redeem tokens\n     */\n\n    function setRedemptionContract(address _redemptionAddress) public payable {\n        require(\n            msg.sender == owner,\n            \"Only the owner of the contract can call this function\"\n        );\n        redemptionAddress = _redemptionAddress;\n    }\n\n\n}\n\n",
  "sourcePath": "/home/lg/Documents/blockchain/useCases/tokyo/tokyoPrefunding/contracts/tokyoCratesPrefunding.sol",
  "compiler": {
    "name": "solc",
    "version": "0.8.2+commit.661d1103.Emscripten.clang"
  },
  "schemaVersion": "3.3.4",
  "updatedAt": "2021-11-03T20:03:58.077Z",
  "devdoc": {
    "kind": "dev",
    "methods": {
      "clearBalance()": {
        "details": "Only the owner of the smart contract can sign this transaction"
      },
      "constructor": {
        "details": "Sets the values for {owner}, {presaleTokens}, {presalePrice}, {presaleEnd}"
      },
      "paused()": {
        "details": "Returns true if the contract is paused, and false otherwise."
      },
      "purchasePresaleToken(uint256)": {
        "params": {
          "_amount": "represents the amount of presale crates you are purchasing"
        }
      },
      "setRedemptionContract(address)": {
        "details": "Only the owner can sign this function",
        "params": {
          "_redemptionAddress": "is the address of the contract that can redeem tokens"
        }
      }
    },
    "version": 1
  },
  "userdoc": {
    "kind": "user",
    "methods": {
      "clearBalance()": {
        "notice": "Clears balance of the contract and transfers it to the owner"
      },
      "purchasePresaleToken(uint256)": {
        "notice": "Purchase a presale crate"
      },
      "setRedemptionContract(address)": {
        "notice": "Sets the address of the contract that can redeem the tokens"
      }
    },
    "version": 1
  }
}